{
    "abi": [
        {
            "type": "constructor",
            "inputs": [
                {
                    "name": "_name",
                    "type": "string",
                    "internalType": "string"
                },
                {
                    "name": "_date",
                    "type": "uint256",
                    "internalType": "uint256"
                },
                {
                    "name": "_location",
                    "type": "string",
                    "internalType": "string"
                },
                {
                    "name": "_maxParticipants",
                    "type": "uint256",
                    "internalType": "uint256"
                },
                {
                    "name": "_nftContractAddress",
                    "type": "address",
                    "internalType": "address"
                }
            ],
            "stateMutability": "nonpayable"
        },
        {
            "type": "function",
            "name": "date",
            "inputs": [],
            "outputs": [
                {
                    "name": "",
                    "type": "uint256",
                    "internalType": "uint256"
                }
            ],
            "stateMutability": "view"
        },
        {
            "type": "function",
            "name": "getParticipantResultBlobId",
            "inputs": [
                {
                    "name": "participant",
                    "type": "address",
                    "internalType": "address"
                }
            ],
            "outputs": [
                {
                    "name": "",
                    "type": "string",
                    "internalType": "string"
                }
            ],
            "stateMutability": "view"
        },
        {
            "type": "function",
            "name": "getResult",
            "inputs": [
                {
                    "name": "participant",
                    "type": "address",
                    "internalType": "address"
                }
            ],
            "outputs": [
                {
                    "name": "",
                    "type": "string",
                    "internalType": "string"
                }
            ],
            "stateMutability": "view"
        },
        {
            "type": "function",
            "name": "isRegistered",
            "inputs": [
                {
                    "name": "",
                    "type": "address",
                    "internalType": "address"
                }
            ],
            "outputs": [
                {
                    "name": "",
                    "type": "bool",
                    "internalType": "bool"
                }
            ],
            "stateMutability": "view"
        },
        {
            "type": "function",
            "name": "location",
            "inputs": [],
            "outputs": [
                {
                    "name": "",
                    "type": "string",
                    "internalType": "string"
                }
            ],
            "stateMutability": "view"
        },
        {
            "type": "function",
            "name": "maxParticipants",
            "inputs": [],
            "outputs": [
                {
                    "name": "",
                    "type": "uint256",
                    "internalType": "uint256"
                }
            ],
            "stateMutability": "view"
        },
        {
            "type": "function",
            "name": "name",
            "inputs": [],
            "outputs": [
                {
                    "name": "",
                    "type": "string",
                    "internalType": "string"
                }
            ],
            "stateMutability": "view"
        },
        {
            "type": "function",
            "name": "nftContract",
            "inputs": [],
            "outputs": [
                {
                    "name": "",
                    "type": "address",
                    "internalType": "contract SoulboundNFT"
                }
            ],
            "stateMutability": "view"
        },
        {
            "type": "function",
            "name": "owner",
            "inputs": [],
            "outputs": [
                {
                    "name": "",
                    "type": "address",
                    "internalType": "address"
                }
            ],
            "stateMutability": "view"
        },
        {
            "type": "function",
            "name": "register",
            "inputs": [],
            "outputs": [],
            "stateMutability": "nonpayable"
        },
        {
            "type": "function",
            "name": "registeredParticipants",
            "inputs": [],
            "outputs": [
                {
                    "name": "",
                    "type": "uint256",
                    "internalType": "uint256"
                }
            ],
            "stateMutability": "view"
        },
        {
            "type": "function",
            "name": "renounceOwnership",
            "inputs": [],
            "outputs": [],
            "stateMutability": "nonpayable"
        },
        {
            "type": "function",
            "name": "results",
            "inputs": [
                {
                    "name": "",
                    "type": "address",
                    "internalType": "address"
                }
            ],
            "outputs": [
                {
                    "name": "",
                    "type": "string",
                    "internalType": "string"
                }
            ],
            "stateMutability": "view"
        },
        {
            "type": "function",
            "name": "resultsUploaded",
            "inputs": [],
            "outputs": [
                {
                    "name": "",
                    "type": "bool",
                    "internalType": "bool"
                }
            ],
            "stateMutability": "view"
        },
        {
            "type": "function",
            "name": "transferOwnership",
            "inputs": [
                {
                    "name": "newOwner",
                    "type": "address",
                    "internalType": "address"
                }
            ],
            "outputs": [],
            "stateMutability": "nonpayable"
        },
        {
            "type": "function",
            "name": "uploadResults",
            "inputs": [
                {
                    "name": "participants",
                    "type": "address[]",
                    "internalType": "address[]"
                },
                {
                    "name": "_results",
                    "type": "string[]",
                    "internalType": "string[]"
                }
            ],
            "outputs": [],
            "stateMutability": "nonpayable"
        },
        {
            "type": "event",
            "name": "OwnershipTransferred",
            "inputs": [
                {
                    "name": "previousOwner",
                    "type": "address",
                    "indexed": true,
                    "internalType": "address"
                },
                {
                    "name": "newOwner",
                    "type": "address",
                    "indexed": true,
                    "internalType": "address"
                }
            ],
            "anonymous": false
        },
        {
            "type": "event",
            "name": "ParticipantRegistered",
            "inputs": [
                {
                    "name": "participant",
                    "type": "address",
                    "indexed": false,
                    "internalType": "address"
                }
            ],
            "anonymous": false
        },
        {
            "type": "event",
            "name": "ResultAdded",
            "inputs": [
                {
                    "name": "tokenId",
                    "type": "uint256",
                    "indexed": false,
                    "internalType": "uint256"
                },
                {
                    "name": "eventId",
                    "type": "uint256",
                    "indexed": false,
                    "internalType": "uint256"
                },
                {
                    "name": "result",
                    "type": "string",
                    "indexed": false,
                    "internalType": "string"
                }
            ],
            "anonymous": false
        },
        {
            "type": "event",
            "name": "ResultsUploaded",
            "inputs": [
                {
                    "name": "organizer",
                    "type": "address",
                    "indexed": false,
                    "internalType": "address"
                }
            ],
            "anonymous": false
        },
        {
            "type": "error",
            "name": "MaxRegisteredParticipantsReached",
            "inputs": []
        },
        {
            "type": "error",
            "name": "MismatchInParticipansAndResults",
            "inputs": []
        },
        {
            "type": "error",
            "name": "NoSouldBoundNFT",
            "inputs": []
        },
        {
            "type": "error",
            "name": "OwnableInvalidOwner",
            "inputs": [
                {
                    "name": "owner",
                    "type": "address",
                    "internalType": "address"
                }
            ]
        },
        {
            "type": "error",
            "name": "OwnableUnauthorizedAccount",
            "inputs": [
                {
                    "name": "account",
                    "type": "address",
                    "internalType": "address"
                }
            ]
        },
        {
            "type": "error",
            "name": "ParticipantNotRegistered",
            "inputs": []
        },
        {
            "type": "error",
            "name": "RegisterPeriodExpired",
            "inputs": []
        },
        {
            "type": "error",
            "name": "ResultsAlreadyUploaded",
            "inputs": []
        },
        {
            "type": "error",
            "name": "ResultsNotUploadedYet",
            "inputs": []
        },
        {
            "type": "error",
            "name": "UserAlreadyRegistered",
            "inputs": []
        }
    ],
    "bytecode": {
        "object": "0x60806040523480156200001157600080fd5b50604051620012f5380380620012f58339810160408190526200003491620001d1565b33806200005b57604051631e4fbdf760e01b81526000600482015260240160405180910390fd5b6200006681620000b9565b50600162000075868262000303565b506002849055600362000089848262000303565b50600491909155600980546001600160a01b0319166001600160a01b0390921691909117905550620003cf915050565b600080546001600160a01b038381166001600160a01b0319831681178455604051919092169283917f8be0079c531659141344cd1fd0a4f28419497f9722a3daafe3b4186f6b6457e09190a35050565b634e487b7160e01b600052604160045260246000fd5b600082601f8301126200013157600080fd5b81516001600160401b03808211156200014e576200014e62000109565b604051601f8301601f19908116603f0116810190828211818310171562000179576200017962000109565b81604052838152602092508660208588010111156200019757600080fd5b600091505b83821015620001bb57858201830151818301840152908201906200019c565b6000602085830101528094505050505092915050565b600080600080600060a08688031215620001ea57600080fd5b85516001600160401b03808211156200020257600080fd5b6200021089838a016200011f565b96506020880151955060408801519150808211156200022e57600080fd5b506200023d888289016200011f565b60608801516080890151919550935090506001600160a01b03811681146200026457600080fd5b809150509295509295909350565b600181811c908216806200028757607f821691505b602082108103620002a857634e487b7160e01b600052602260045260246000fd5b50919050565b601f821115620002fe576000816000526020600020601f850160051c81016020861015620002d95750805b601f850160051c820191505b81811015620002fa57828155600101620002e5565b5050505b505050565b81516001600160401b038111156200031f576200031f62000109565b620003378162000330845462000272565b84620002ae565b602080601f8311600181146200036f5760008415620003565750858301515b600019600386901b1c1916600185901b178555620002fa565b600085815260208120601f198616915b82811015620003a0578886015182559484019460019091019084016200037f565b5085821015620003bf5787850151600019600388901b60f8161c191681555b5050505050600190811b01905550565b610f1680620003df6000396000f3fe608060405234801561001057600080fd5b50600436106101005760003560e01c80638da5cb5b11610097578063d56d229d11610066578063d56d229d146101f1578063ef378f6214610204578063f2fde38b14610217578063f308db621461022a57600080fd5b80638da5cb5b1461018d578063c3c5a547146101b2578063c8fcfbf6146101d5578063d5391107146101de57600080fd5b8063446a37e0116100d3578063446a37e01461014d578063516f279e1461016057806355bdf0df14610168578063715018a61461018557600080fd5b806306fdde03146101055780631aa3a0081461012357806324924bf71461012d578063323046b114610144575b600080fd5b61010d61023d565b60405161011a9190610a3d565b60405180910390f35b61012b6102cb565b005b61013660045481565b60405190815260200161011a565b61013660025481565b61010d61015b366004610a6c565b610432565b61010d610539565b6006546101759060ff1681565b604051901515815260200161011a565b61012b610546565b6000546001600160a01b03165b6040516001600160a01b03909116815260200161011a565b6101756101c0366004610a6c565b60076020526000908152604090205460ff1681565b61013660055481565b61012b6101ec366004610be9565b61055a565b60095461019a906001600160a01b031681565b61010d610212366004610a6c565b6107c6565b61012b610225366004610a6c565b6107df565b61010d610238366004610a6c565b610822565b6001805461024a90610ca9565b80601f016020809104026020016040519081016040528092919081815260200182805461027690610ca9565b80156102c35780601f10610298576101008083540402835291602001916102c3565b820191906000526020600020905b8154815290600101906020018083116102a657829003601f168201915b505050505081565b3360009081526007602052604090205460ff16156102fc57604051634f2532fb60e11b815260040160405180910390fd5b6004546005541061032057604051630a0e28db60e31b815260040160405180910390fd5b60065460ff161561034457604051630ed2a28f60e11b815260040160405180910390fd5b6009546040516370a0823160e01b81523360048201526001600160a01b03909116906370a0823190602401602060405180830381865afa15801561038c573d6000803e3d6000fd5b505050506040513d601f19601f820116820180604052508101906103b09190610ce3565b6000036103d057604051637754007360e01b815260040160405180910390fd5b336000908152600760205260408120805460ff1916600117905560058054916103f883610cfc565b90915550506040513381527fe11711cd714e06fbbbea301a8e90822f2f2ea4808e37e3adf06038f33c53ff279060200160405180910390a1565b60065460609060ff166104585760405163e13d599b60e01b815260040160405180910390fd5b6001600160a01b03821660009081526007602052604090205460ff1661049157604051630745908560e41b815260040160405180910390fd5b6001600160a01b038216600090815260086020526040902080546104b490610ca9565b80601f01602080910402602001604051908101604052809291908181526020018280546104e090610ca9565b801561052d5780601f106105025761010080835404028352916020019161052d565b820191906000526020600020905b81548152906001019060200180831161051057829003601f168201915b50505050509050919050565b6003805461024a90610ca9565b61054e610970565b610558600061099d565b565b610562610970565b60065460ff161561058657604051633d8acce160e21b815260040160405180910390fd5b80518251146105a857604051633259bdf760e21b815260040160405180910390fd5b60005b825181101561078157600760008483815181106105ca576105ca610d23565b6020908102919091018101516001600160a01b031682528101919091526040016000205460ff1661060e57604051630745908560e41b815260040160405180910390fd5b81818151811061062057610620610d23565b60200260200101516008600085848151811061063e5761063e610d23565b60200260200101516001600160a01b03166001600160a01b0316815260200190815260200160002090816106729190610d8a565b5060095483516000916001600160a01b031690632f745c599086908590811061069d5761069d610d23565b602002602001015160006040518363ffffffff1660e01b81526004016106d89291906001600160a01b03929092168252602082015260400190565b602060405180830381865afa1580156106f5573d6000803e3d6000fd5b505050506040513d601f19601f820116820180604052508101906107199190610ce3565b90507fd80d01cd7ec96c9095ea39e45d81d7ff2dc75624a878f557145eb4e88797305d81306001600160a01b031685858151811061075957610759610d23565b602002602001015160405161077093929190610e4a565b60405180910390a1506001016105ab565b506006805460ff191660011790556040513381527fb53c4c53839dcd00752c7defed83b60883e68b76a7542406b34d362d577516139060200160405180910390a15050565b6008602052600090815260409020805461024a90610ca9565b6107e7610970565b6001600160a01b03811661081657604051631e4fbdf760e01b8152600060048201526024015b60405180910390fd5b61081f8161099d565b50565b6001600160a01b03811660009081526007602052604090205460609060ff1661085e57604051630745908560e41b815260040160405180910390fd5b60065460ff166108815760405163e13d599b60e01b815260040160405180910390fd5b600954604051632f745c5960e01b81526001600160a01b038481166004830152600060248301819052921690632f745c5990604401602060405180830381865afa1580156108d3573d6000803e3d6000fd5b505050506040513d601f19601f820116820180604052508101906108f79190610ce3565b60095460405163c87b56dd60e01b8152600481018390529192506001600160a01b03169063c87b56dd90602401600060405180830381865afa158015610941573d6000803e3d6000fd5b505050506040513d6000823e601f3d908101601f191682016040526109699190810190610e72565b9392505050565b6000546001600160a01b031633146105585760405163118cdaa760e01b815233600482015260240161080d565b600080546001600160a01b038381166001600160a01b0319831681178455604051919092169283917f8be0079c531659141344cd1fd0a4f28419497f9722a3daafe3b4186f6b6457e09190a35050565b60005b83811015610a085781810151838201526020016109f0565b50506000910152565b60008151808452610a298160208601602086016109ed565b601f01601f19169290920160200192915050565b6020815260006109696020830184610a11565b80356001600160a01b0381168114610a6757600080fd5b919050565b600060208284031215610a7e57600080fd5b61096982610a50565b634e487b7160e01b600052604160045260246000fd5b604051601f8201601f1916810167ffffffffffffffff81118282101715610ac657610ac6610a87565b604052919050565b600067ffffffffffffffff821115610ae857610ae8610a87565b5060051b60200190565b600067ffffffffffffffff821115610b0c57610b0c610a87565b50601f01601f191660200190565b600082601f830112610b2b57600080fd5b81356020610b40610b3b83610ace565b610a9d565b82815260059290921b84018101918181019086841115610b5f57600080fd5b8286015b84811015610bde57803567ffffffffffffffff811115610b835760008081fd5b8701603f81018913610b955760008081fd5b848101356040610ba7610b3b83610af2565b8281528b82848601011115610bbc5760008081fd5b8282850189830137600092810188019290925250845250918301918301610b63565b509695505050505050565b60008060408385031215610bfc57600080fd5b823567ffffffffffffffff80821115610c1457600080fd5b818501915085601f830112610c2857600080fd5b81356020610c38610b3b83610ace565b82815260059290921b84018101918181019089841115610c5757600080fd5b948201945b83861015610c7c57610c6d86610a50565b82529482019490820190610c5c565b96505086013592505080821115610c9257600080fd5b50610c9f85828601610b1a565b9150509250929050565b600181811c90821680610cbd57607f821691505b602082108103610cdd57634e487b7160e01b600052602260045260246000fd5b50919050565b600060208284031215610cf557600080fd5b5051919050565b600060018201610d1c57634e487b7160e01b600052601160045260246000fd5b5060010190565b634e487b7160e01b600052603260045260246000fd5b601f821115610d85576000816000526020600020601f850160051c81016020861015610d625750805b601f850160051c820191505b81811015610d8157828155600101610d6e565b5050505b505050565b815167ffffffffffffffff811115610da457610da4610a87565b610db881610db28454610ca9565b84610d39565b602080601f831160018114610ded5760008415610dd55750858301515b600019600386901b1c1916600185901b178555610d81565b600085815260208120601f198616915b82811015610e1c57888601518255948401946001909101908401610dfd565b5085821015610e3a5787850151600019600388901b60f8161c191681555b5050505050600190811b01905550565b838152826020820152606060408201526000610e696060830184610a11565b95945050505050565b600060208284031215610e8457600080fd5b815167ffffffffffffffff811115610e9b57600080fd5b8201601f81018413610eac57600080fd5b8051610eba610b3b82610af2565b818152856020838501011115610ecf57600080fd5b610e698260208301602086016109ed56fea2646970667358221220fa3d7c1f5d675b42d2d209d385c4b773dba886d6034a7f6d7b184988f225ba4364736f6c63430008180033",
        "linkReferences": {}
    },
    "methodIdentifiers": {
        "date()": "323046b1",
        "getParticipantResultBlobId(address)": "f308db62",
        "getResult(address)": "446a37e0",
        "isRegistered(address)": "c3c5a547",
        "location()": "516f279e",
        "maxParticipants()": "24924bf7",
        "name()": "06fdde03",
        "nftContract()": "d56d229d",
        "owner()": "8da5cb5b",
        "register()": "1aa3a008",
        "registeredParticipants()": "c8fcfbf6",
        "renounceOwnership()": "715018a6",
        "results(address)": "ef378f62",
        "resultsUploaded()": "55bdf0df",
        "transferOwnership(address)": "f2fde38b",
        "uploadResults(address[],string[])": "d5391107"
    },
    "id": 0
}