{"abi":[{"type":"constructor","inputs":[{"name":"_name","type":"string","internalType":"string"},{"name":"_date","type":"uint256","internalType":"uint256"},{"name":"_location","type":"string","internalType":"string"},{"name":"_maxParticipants","type":"uint256","internalType":"uint256"},{"name":"_nftContractAddress","type":"address","internalType":"address"}],"stateMutability":"nonpayable"},{"type":"function","name":"date","inputs":[],"outputs":[{"name":"","type":"uint256","internalType":"uint256"}],"stateMutability":"view"},{"type":"function","name":"getRegisteredParticipants","inputs":[],"outputs":[{"name":"","type":"address[]","internalType":"address[]"}],"stateMutability":"view"},{"type":"function","name":"getResult","inputs":[{"name":"participant","type":"address","internalType":"address"}],"outputs":[{"name":"","type":"string","internalType":"string"}],"stateMutability":"view"},{"type":"function","name":"isRegistered","inputs":[{"name":"","type":"address","internalType":"address"}],"outputs":[{"name":"","type":"bool","internalType":"bool"}],"stateMutability":"view"},{"type":"function","name":"location","inputs":[],"outputs":[{"name":"","type":"string","internalType":"string"}],"stateMutability":"view"},{"type":"function","name":"maxParticipants","inputs":[],"outputs":[{"name":"","type":"uint256","internalType":"uint256"}],"stateMutability":"view"},{"type":"function","name":"name","inputs":[],"outputs":[{"name":"","type":"string","internalType":"string"}],"stateMutability":"view"},{"type":"function","name":"nftContract","inputs":[],"outputs":[{"name":"","type":"address","internalType":"contract SoulboundNFT"}],"stateMutability":"view"},{"type":"function","name":"owner","inputs":[],"outputs":[{"name":"","type":"address","internalType":"address"}],"stateMutability":"view"},{"type":"function","name":"register","inputs":[],"outputs":[],"stateMutability":"nonpayable"},{"type":"function","name":"registeredAddresses","inputs":[{"name":"","type":"uint256","internalType":"uint256"}],"outputs":[{"name":"","type":"address","internalType":"address"}],"stateMutability":"view"},{"type":"function","name":"registeredParticipants","inputs":[],"outputs":[{"name":"","type":"uint256","internalType":"uint256"}],"stateMutability":"view"},{"type":"function","name":"renounceOwnership","inputs":[],"outputs":[],"stateMutability":"nonpayable"},{"type":"function","name":"results","inputs":[{"name":"","type":"address","internalType":"address"}],"outputs":[{"name":"","type":"string","internalType":"string"}],"stateMutability":"view"},{"type":"function","name":"resultsUploaded","inputs":[],"outputs":[{"name":"","type":"bool","internalType":"bool"}],"stateMutability":"view"},{"type":"function","name":"transferOwnership","inputs":[{"name":"newOwner","type":"address","internalType":"address"}],"outputs":[],"stateMutability":"nonpayable"},{"type":"function","name":"uploadResults","inputs":[{"name":"participants","type":"address[]","internalType":"address[]"},{"name":"_results","type":"string[]","internalType":"string[]"}],"outputs":[],"stateMutability":"nonpayable"},{"type":"event","name":"OwnershipTransferred","inputs":[{"name":"previousOwner","type":"address","indexed":true,"internalType":"address"},{"name":"newOwner","type":"address","indexed":true,"internalType":"address"}],"anonymous":false},{"type":"event","name":"ParticipantRegistered","inputs":[{"name":"participant","type":"address","indexed":false,"internalType":"address"}],"anonymous":false},{"type":"event","name":"ResultsUploaded","inputs":[{"name":"organizer","type":"address","indexed":false,"internalType":"address"}],"anonymous":false},{"type":"error","name":"MaxRegisteredParticipantsReached","inputs":[]},{"type":"error","name":"MismatchInParticipansAndResults","inputs":[]},{"type":"error","name":"NoSouldBoundNFT","inputs":[]},{"type":"error","name":"OwnableInvalidOwner","inputs":[{"name":"owner","type":"address","internalType":"address"}]},{"type":"error","name":"OwnableUnauthorizedAccount","inputs":[{"name":"account","type":"address","internalType":"address"}]},{"type":"error","name":"ParticipantNotRegistered","inputs":[]},{"type":"error","name":"RegisterPeriodExpired","inputs":[]},{"type":"error","name":"ResultsAlreadyUploaded","inputs":[]},{"type":"error","name":"ResultsNotUploadedYet","inputs":[]},{"type":"error","name":"UserAlreadyRegistered","inputs":[]}],"bytecode":{"object":"0x60806040523480156200001157600080fd5b50604051620012d3380380620012d38339810160408190526200003491620001d1565b33806200005b57604051631e4fbdf760e01b81526000600482015260240160405180910390fd5b6200006681620000b9565b50600162000075868262000303565b506002849055600362000089848262000303565b50600491909155600a80546001600160a01b0319166001600160a01b0390921691909117905550620003cf915050565b600080546001600160a01b038381166001600160a01b0319831681178455604051919092169283917f8be0079c531659141344cd1fd0a4f28419497f9722a3daafe3b4186f6b6457e09190a35050565b634e487b7160e01b600052604160045260246000fd5b600082601f8301126200013157600080fd5b81516001600160401b03808211156200014e576200014e62000109565b604051601f8301601f19908116603f0116810190828211818310171562000179576200017962000109565b81604052838152602092508660208588010111156200019757600080fd5b600091505b83821015620001bb57858201830151818301840152908201906200019c565b6000602085830101528094505050505092915050565b600080600080600060a08688031215620001ea57600080fd5b85516001600160401b03808211156200020257600080fd5b6200021089838a016200011f565b96506020880151955060408801519150808211156200022e57600080fd5b506200023d888289016200011f565b60608801516080890151919550935090506001600160a01b03811681146200026457600080fd5b809150509295509295909350565b600181811c908216806200028757607f821691505b602082108103620002a857634e487b7160e01b600052602260045260246000fd5b50919050565b601f821115620002fe576000816000526020600020601f850160051c81016020861015620002d95750805b601f850160051c820191505b81811015620002fa57828155600101620002e5565b5050505b505050565b81516001600160401b038111156200031f576200031f62000109565b620003378162000330845462000272565b84620002ae565b602080601f8311600181146200036f5760008415620003565750858301515b600019600386901b1c1916600185901b178555620002fa565b600085815260208120601f198616915b82811015620003a0578886015182559484019460019091019084016200037f565b5085821015620003bf5787850151600019600388901b60f8161c191681555b5050505050600190811b01905550565b610ef480620003df6000396000f3fe608060405234801561001057600080fd5b506004361061010b5760003560e01c8063715018a6116100a2578063c8fcfbf611610071578063c8fcfbf61461020c578063d539110714610215578063d56d229d14610228578063ef378f621461023b578063f2fde38b1461024e57600080fd5b8063715018a6146101bb5780638da5cb5b146101c3578063a7b23ec6146101d4578063c3c5a547146101e957600080fd5b8063446a37e0116100de578063446a37e014610158578063516f279e1461016b57806355bdf0df146101735780636e9b85551461019057600080fd5b806306fdde03146101105780631aa3a0081461012e57806324924bf714610138578063323046b11461014f575b600080fd5b610118610261565b6040516101259190610a29565b60405180910390f35b6101366102ef565b005b61014160045481565b604051908152602001610125565b61014160025481565b610118610166366004610a5f565b610498565b61011861059f565b6006546101809060ff1681565b6040519015158152602001610125565b6101a361019e366004610a7a565b6105ac565b6040516001600160a01b039091168152602001610125565b6101366105d6565b6000546001600160a01b03166101a3565b6101dc6105ea565b6040516101259190610a93565b6101806101f7366004610a5f565b60076020526000908152604090205460ff1681565b61014160055481565b610136610223366004610c35565b61064c565b600a546101a3906001600160a01b031681565b610118610249366004610a5f565b61090f565b61013661025c366004610a5f565b610928565b6001805461026e90610cf5565b80601f016020809104026020016040519081016040528092919081815260200182805461029a90610cf5565b80156102e75780601f106102bc576101008083540402835291602001916102e7565b820191906000526020600020905b8154815290600101906020018083116102ca57829003601f168201915b505050505081565b3360009081526007602052604090205460ff161561032057604051634f2532fb60e11b815260040160405180910390fd5b6004546005541061034457604051630a0e28db60e31b815260040160405180910390fd5b60065460ff161561036857604051630ed2a28f60e11b815260040160405180910390fd5b600a546040516370a0823160e01b81523360048201526001600160a01b03909116906370a0823190602401602060405180830381865afa1580156103b0573d6000803e3d6000fd5b505050506040513d601f19601f820116820180604052508101906103d49190610d2f565b6000036103f457604051637754007360e01b815260040160405180910390fd5b336000818152600760205260408120805460ff1916600190811790915560098054918201815582527f6e1540171b6c0c960b71a7020d9f60077f6af931a8bbf590da0223dacf75c7af0180546001600160a01b031916909217909155600580549161045e83610d48565b90915550506040513381527fe11711cd714e06fbbbea301a8e90822f2f2ea4808e37e3adf06038f33c53ff279060200160405180910390a1565b60065460609060ff166104be5760405163e13d599b60e01b815260040160405180910390fd5b6001600160a01b03821660009081526007602052604090205460ff166104f757604051630745908560e41b815260040160405180910390fd5b6001600160a01b0382166000908152600860205260409020805461051a90610cf5565b80601f016020809104026020016040519081016040528092919081815260200182805461054690610cf5565b80156105935780601f1061056857610100808354040283529160200191610593565b820191906000526020600020905b81548152906001019060200180831161057657829003601f168201915b50505050509050919050565b6003805461026e90610cf5565b600981815481106105bc57600080fd5b6000918252602090912001546001600160a01b0316905081565b6105de610966565b6105e86000610993565b565b6060600980548060200260200160405190810160405280929190818152602001828054801561064257602002820191906000526020600020905b81546001600160a01b03168152600190910190602001808311610624575b5050505050905090565b60065460ff161561067057604051633d8acce160e21b815260040160405180910390fd5b805182511461069257604051633259bdf760e21b815260040160405180910390fd5b60005b82518110156108ca57600760008483815181106106b4576106b4610d6f565b6020908102919091018101516001600160a01b031682528101919091526040016000205460ff1661072c5760405162461bcd60e51b815260206004820152601a60248201527f5061727469636970616e74206e6f74207265676973746572656400000000000060448201526064015b60405180910390fd5b81818151811061073e5761073e610d6f565b60200260200101516008600085848151811061075c5761075c610d6f565b60200260200101516001600160a01b03166001600160a01b0316815260200190815260200160002090816107909190610dd6565b50600a5483516000916001600160a01b031690632f745c59908690859081106107bb576107bb610d6f565b602002602001015160006040518363ffffffff1660e01b81526004016107f69291906001600160a01b03929092168252602082015260400190565b602060405180830381865afa158015610813573d6000803e3d6000fd5b505050506040513d601f19601f820116820180604052508101906108379190610d2f565b600a5484519192506001600160a01b0316906306eaefee908390309087908790811061086557610865610d6f565b60200260200101516040518463ffffffff1660e01b815260040161088b93929190610e96565b600060405180830381600087803b1580156108a557600080fd5b505af11580156108b9573d6000803e3d6000fd5b505060019093019250610695915050565b506006805460ff191660011790556040513381527fb53c4c53839dcd00752c7defed83b60883e68b76a7542406b34d362d577516139060200160405180910390a15050565b6008602052600090815260409020805461026e90610cf5565b610930610966565b6001600160a01b03811661095a57604051631e4fbdf760e01b815260006004820152602401610723565b61096381610993565b50565b6000546001600160a01b031633146105e85760405163118cdaa760e01b8152336004820152602401610723565b600080546001600160a01b038381166001600160a01b0319831681178455604051919092169283917f8be0079c531659141344cd1fd0a4f28419497f9722a3daafe3b4186f6b6457e09190a35050565b6000815180845260005b81811015610a09576020818501810151868301820152016109ed565b506000602082860101526020601f19601f83011685010191505092915050565b602081526000610a3c60208301846109e3565b9392505050565b80356001600160a01b0381168114610a5a57600080fd5b919050565b600060208284031215610a7157600080fd5b610a3c82610a43565b600060208284031215610a8c57600080fd5b5035919050565b6020808252825182820181905260009190848201906040850190845b81811015610ad45783516001600160a01b031683529284019291840191600101610aaf565b50909695505050505050565b634e487b7160e01b600052604160045260246000fd5b604051601f8201601f1916810167ffffffffffffffff81118282101715610b1f57610b1f610ae0565b604052919050565b600067ffffffffffffffff821115610b4157610b41610ae0565b5060051b60200190565b6000601f83601f840112610b5e57600080fd5b82356020610b73610b6e83610b27565b610af6565b82815260059290921b85018101918181019087841115610b9257600080fd5b8287015b84811015610c2957803567ffffffffffffffff80821115610bb75760008081fd5b818a0191508a603f830112610bcc5760008081fd5b85820135604082821115610be257610be2610ae0565b610bf3828b01601f19168901610af6565b92508183528c81838601011115610c0a5760008081fd5b8181850189850137506000908201870152845250918301918301610b96565b50979650505050505050565b60008060408385031215610c4857600080fd5b823567ffffffffffffffff80821115610c6057600080fd5b818501915085601f830112610c7457600080fd5b81356020610c84610b6e83610b27565b82815260059290921b84018101918181019089841115610ca357600080fd5b948201945b83861015610cc857610cb986610a43565b82529482019490820190610ca8565b96505086013592505080821115610cde57600080fd5b50610ceb85828601610b4b565b9150509250929050565b600181811c90821680610d0957607f821691505b602082108103610d2957634e487b7160e01b600052602260045260246000fd5b50919050565b600060208284031215610d4157600080fd5b5051919050565b600060018201610d6857634e487b7160e01b600052601160045260246000fd5b5060010190565b634e487b7160e01b600052603260045260246000fd5b601f821115610dd1576000816000526020600020601f850160051c81016020861015610dae5750805b601f850160051c820191505b81811015610dcd57828155600101610dba565b5050505b505050565b815167ffffffffffffffff811115610df057610df0610ae0565b610e0481610dfe8454610cf5565b84610d85565b602080601f831160018114610e395760008415610e215750858301515b600019600386901b1c1916600185901b178555610dcd565b600085815260208120601f198616915b82811015610e6857888601518255948401946001909101908401610e49565b5085821015610e865787850151600019600388901b60f8161c191681555b5050505050600190811b01905550565b838152826020820152606060408201526000610eb560608301846109e3565b9594505050505056fea264697066735822122096fa6775dcfffdcbb0735447b108c207b0703c4d8e3770818a0272ae2562c1c864736f6c63430008180033","linkReferences":{}},"methodIdentifiers":{"date()":"323046b1","getRegisteredParticipants()":"a7b23ec6","getResult(address)":"446a37e0","isRegistered(address)":"c3c5a547","location()":"516f279e","maxParticipants()":"24924bf7","name()":"06fdde03","nftContract()":"d56d229d","owner()":"8da5cb5b","register()":"1aa3a008","registeredAddresses(uint256)":"6e9b8555","registeredParticipants()":"c8fcfbf6","renounceOwnership()":"715018a6","results(address)":"ef378f62","resultsUploaded()":"55bdf0df","transferOwnership(address)":"f2fde38b","uploadResults(address[],string[])":"d5391107"},"id":0}